:03000000020E7D70
:0C0E7D00787FE4F6D8FD758154020EC4A5
:0D1018000D0A0000000000000000000000B4
:100F72001021036B12BA40126D176D17401212BA8C
:100F8200036B202031000000000000000000000080
:100F9200000000000000000000000000000000004F
:0F0FA2000000000000045100000000C101C10068
:100F0900E4F554F553F552F551F516F517AB54AA16
:100F190053A952A851C000C001C002C003E517255A
:100F2900E02421F8E6FC08E6FDEC120AA3E5172502
:100F3900E025E02431F8120CCE1208F87B007A5033
:100F490079C37847120A01D003D002D001D0001228
:100F590008078F548E538D528C510517E51770026F
:080F690005166408451670A589
:010F7100225D
:100FD700E4FDFCC3ED9FEC9E5015E4FBFA0BBB0050
:0F0FE700010ABA01F8BB7EF50DBD00010C80E4D4
:010FF60022D8
:100FF700758920758DF3759850758840D2ACD2AF3E
:0110070022C6
:08102F008F993001FDC201227E
:100FB2008B168A178918AB16AA17A918120C536038
:100FC200130518E5187002051714F9120C53FF12D5
:050FD200102F80E22257
:09102500E4FF3000FDC200AF99A8
:01102E00229F
:03002300021008C0
:10100800309905C299D20132309804C298D2003280
:100D3C0078087C007D007BFF7A10791B7E007F0594
:100D4C00120C2D78117C007D007BFF7A1079207EAF
:100D5C00007F05120C2D120FF71210258F081210A0
:100D6C00258F091210258F0A1210258F0BE4F50C14
:100D7C00E50924D0FFE434FFFE7C007D64120C6C8A
:100D8C00AA06AB07E50824D0FFE434FFFE7C037D04
:100D9C00E8120C6CEF2BFBEE3AFAE50A24D0FFE4D8
:100DAC0034FFFE7C007D0A120C6CEF2BFFEE3AFE3A
:100DBC00E50B24D0FDEC34FFCD2FF50EED3EF50DFB
:100DCC00E4FBFAEB25E025E02435F8120CC2EB2508
:100DDC00E025E02431F8120CDB0BBB00010AEB64BC
:100DEC00074A70DFAC0DAD0EEC120AA38F508E4F7C
:100DFC008D4E8C4D120F09AF54AE53AD52AC5112F7
:100E0C000ADC8E0F8F107C037DE8120C7EEF2430F1
:100E1C00F511AE0FAF107C037DE8120C7E7E007FC7
:100E2C0064CFCDCFCECCCE120C7EEF2430F512AEEB
:100E3C000FAF107C007D64120C7E7E007F0ACFCD3C
:100E4C00CFCECCCE120C7EEF2430F513AE0FAF10FC
:100E5C007C007D0A120C7EED2430F5147B007A00A8
:100E6C007911120FB27BFF7A107918120FB2020DA2
:010E7C006510
:10080000020B48E86480F8E933E83360110460F0D3
:10081000ED33EC337009E8FCE9FDEAFEEBFF22045E
:1008200060DED3EB9FEA9EE99DE8C2E78CF0C2F759
:1008300095F0400CE8CCF8E9CDF9EACEFAEBCFFB25
:10084000120B1385D0F05804700320D5B3E8047060
:10085000075002B2D5020B5292D5EC0460F7E4CCFB
:10086000C0E0C398F8603B94186008400DD0E0FBEE
:10087000020B2AE4FBFAC9FC8028E830E406E4C94C
:10088000FBE4CAFCE830E305E4C9CACBFCE8540742
:100890006010F8C3E913F9EA13FAEB13FBEC13FC4D
:1008A000D8F130F52FC3E49CFCEF9BFFEE9AFEEDF0
:1008B00099FDD0E0FBEF4E4D4C701222DB03020B92
:1008C0004FEC2CFCEF33FFEE33FEED33FDED30E764
:1008D000EB020B2AEF2BFFEE3AFEED39FDD0E0FBE9
:1008E00050130BBB0003020B52ED13FDEE13FEEF92
:0808F00013FFEC13FC020B2ABC
:1008F800EC4D6011E8497017ED33EC3304600DE4FA
:10090800FCFFFEFD22E933E8330470F8020B4812BD
:100918000B1358046009E4CC2481500628500902BE
:100928000B52284003020B4FC0E0EB4A7044B980D9
:1009380006D0E0FB020B3EEF4E701CBD8008EBFFBB
:10094800EAFEE9FD80EBE98DF0A4FEE5F00209E19D
:10095800E9CDF9EAFEEBFFEF89F0A4FCE5F0CE89DA
:10096800F0A42EFFE435F0CD89F0A42DFEE435F097
:100978008067EF4E7005BD80D780C3EF8BF0A4ACC5
:10098800F0EE8BF0A42CFCE435F0F8EF8AF0A42C00
:10099800E5F038FCE433CB8DF0A42CFCE5F03BF813
:1009A800EE8AF0A42CFCE5F038F8E433CF89F0A403
:1009B8002CFCE5F038CF3400CE89F0A42FFFE5F009
:1009C8003EFEE433C98DF0A42EFEE5F039CD8AF061
:1009D800A42FFFE5F03EFEE43DFD33D0E0FB5007D9
:1009E8000BBB000F020B52EC2CFCEF33FFEE33FE77
:0609F800ED33FD020B2AA5
:1009FE00020B52EC5D046005E859047003020B48CB
:100A0E00120B13580460F6EC4860F2EC7004FDFE15
:100A1E00FF22C860DB2481C85009C39860025006CB
:100A2E00020B4F9850CAF582E9294B4A7005AB82EA
:100A3E00020B3E75F0007C1A7880C3EF9BEE9AEDA8
:100A4E0099400DC3EF9BFFEE9AFEED99FDE842F043
:100A5E00DC23ACF0D0E0FFD0E0FED0E0FDAB822096
:100A6E00E7101BEB60BAEC2CFCEF33FFEE33FEED20
:100A7E0033FD020B2AE803F830E705C0F075F000ED
:100A8E00EF2FFFEE33FEED33FD40B830E7C280AA04
:100A9E0075F020800E75F010800575F0087D007ED3
:100AAE00007F003392D530D503120CB4EC334010D6
:100ABE00EF33FFEE33FEED33FDEC33FCD5F0ED22DC
:0E0ACE00E5F0247EA2D513CC92E7CDCEFF2218
:100ADC00EDD2E7CD33EC3392D524814006E4FFFE12
:100AEC00FDFC22FCE4CFCECDCC24E0501174FF8071
:100AFC00EDC3CC13CCCD13CDCE13CECF13CF04700E
:070B0C00F030D5DE020CB44D
:100B1300E9D2E7C933E833F892D5EDD2E7CD33EC28
:070B230033FC5002B2D522A1
:100B2A00EC30E7100FBF000C0EBE00080DBD00042C
:100B3A000BEB6014A2D5EB13FCED92E7FD2274FFD8
:100B4A00FCFDFEFF22E480F8A2D574FF13FC7D8031
:030B5A00E480EF45
:100E8900020D3CE493A3F8E493A34003F68001F236
:100E990008DFF48029E493A3F85407240CC8C3336A
:100EA900C4540F4420C8834004F456800146F6DF39
:100EB900E4800B0102040810204080900F72E47E48
:100EC900019360BCA3FF543F30E509541FFEE4932E
:100ED900A360010ECF54C025E060A840B8E493A3F5
:100EE900FAE493A3F8E493A3C8C582C8CAC583CA20
:100EF900F0A3C8C582C8CAC583CADFE9DEE780BED8
:010FB100003F
:100B5D00E709F608DFFA8046E709F208DFFA803E7A
:100B6D0088828C83E709F0A3DFFA8032E309F60867
:100B7D00DFFA8078E309F208DFFA807088828C83CF
:100B8D00E309F0A3DFFA806489828A83E0A3F60883
:100B9D00DFFA805889828A83E0A3F208DFFA804C5D
:100BAD0080D280FA80C680D4806980F28033801034
:100BBD0080A680EA809A80A880DA80E280CA80339D
:100BCD0089828A83ECFAE493A3C8C582C8CCC58315
:100BDD00CCF0A3C8C582C8CCC583CCDFE9DEE780E5
:100BED000D89828A83E493A3F608DFF9ECFAA9F064
:100BFD00EDFB2289828A83ECFAE0A3C8C582C8CCBA
:100C0D00C583CCF0A3C8C582C8CCC583CCDFEADED2
:100C1D00E880DB89828A83E493A3F208DFF980CC34
:100C2D0088F0EF60010E4E60C388F0ED2402B4042D
:100C3D000050B9F582EB2402B4040050AF232345D4
:060C4D008223900BAD7341
:100C5300BB010689828A83E0225002E722BBFE029F
:090C6300E32289828A83E49322D2
:100C6C00EF8DF0A4A8F0CF8CF0A428CE8DF0A42E9C
:020C7C00FE2256
:100C7E00C2D5EC30E709B2D5E4C39DFDE49CFCEE91
:100C8E0030E715B2D5E4C39FFFE49EFE120CE7C316
:100C9E00E49DFDE49CFC8003120CE730D507C3E411
:060CAE009FFFE49EFE2200
:0E0CB400C3E49FFFE49EFEE49DFDE49CFC2251
:0C0CC200E6FC08E6FD08E6FE08E6FF225E
:0D0CCE00E6FB08E6F908E6FA08E6CBF82296
:0C0CDB00ECF608EDF608EEF608EFF62245
:100CE700BC000BBE0029EF8DF084FFADF022E4CCF1
:100CF700F875F008EF2FFFEE33FEEC33FCEE9DECBA
:100D0700984005FCEE9DFE0FD5F0E9E4CEFD22EDFF
:100D1700F8F5F0EE8420D21CFEADF075F008EF2F49
:100D2700FFED33FD4007985006D5F0F222C398FD3A
:050D37000FD5F0EA22D7
:00000001FF
